:020000040800F2
:100000000000052021A1000871A100088D30000822
:1000100093300008993000089F300008000000006D
:10002000000000000000000000000000D54C0008A7
:1000300071A10008000000006D4D00087D4D000812
:1000400071A1000871A1000871A1000871A1000848
:1000500071A1000871A1000871A1000871A1000838
:1000600071A1000871A1000871A1000871A1000828
:1000700071A1000871A1000871A1000871A1000818
:1000800071A1000871A1000871A1000831A5000844
:1000900025A5000871A1000835A5000871A1000878
:1000A00071A1000871A1000871A1000871A10008E8
:1000B00071A1000871A1000871A1000871A10008D8
:1000C00071A1000871A1000871A1000871A10008C8
:1000D00071A1000871A1000871A1000871A10008B8
:1000E00071A1000871A1000871A1000871A10008A8
:1000F00071A1000871A1000871A1000871A1000898
:1001000071A1000871A1000871A1000871A1000887
:1001100071A1000871A1000871A1000871A1000877
:1001200071A1000871A1000871A1000871A1000867
:1001300071A100083725000871A1000845A5000835
:1001400039A5000871A1000849A5000871A100089F
:1001500071A1000871A1000871A1000871A1000837
:1001600071A1000871A1000871A1000871A1000827
:1001700071A1000871A1000871A100080000000031
:1001800071A1000871A1000871A1000871A1000807
:1001900071A1000871A1000871A1000871A10008F7
:1001A00071A1000871A1000871A1000871A10008E7
:1001B00071A1000871A1000871A1000871A10008D7
:1001C00071A1000871A1000810B5054C237833B95E
:1001D000044B13B10448AFF300800123237010BD1A
:1001E000000D0020000000007814010808B5034B42
:1001F0001BB103490348AFF3008008BD00000000B5
:10020000040D002078140108A3F5803A704700BF60
:10021000174B002B08BF134B9D46FFF7F5FF00213E
:100220008B460F461348144A121A0EF0E7F80E4B8D
:10023000002B00D098470D4B002B00D09847002092
:10024000002104000D000D48002802D00C4803F0E6
:1002500049FD0DF00BFC2000290004F095FB03F094
:100260003BFF00BF0000080000000000E548000858
:1002700000000520000D002090700020E53C0008E3
:100280000000000038B504461D4601F043F89DF813
:1002900010302046C4F8D05084F8D63038BD000065
:1002A000044B10B504460360806A08B102F032FDC9
:1002B000204610BDD8FE00087FB500260446102257
:1002C000002168460EF09AF894F8D610F5B2A942CB
:1002D00024D92046013600F077FF9B21204600F00C
:1002E00049FF0121204600F059FF002184F8D40085
:1002F000204600F053FF84F8D500204600F074FF3C
:1003000004AB94F8D52003EB450594F8D4301B02D8
:1003100003F47063134325F8103CD5E7002213461D
:10032000D0B2814204D93DF8120001320344F7E70C
:10033000B3FBF1F394ED347ADFED067A27EE277AFA
:1003400007EE903AF8EE677A67EE277A17EE900A92
:1003500004B070BD0000803907B5684603F04EFF59
:100360000EF02CF90EF032F903B05DF804FB43688F
:100370001A6803681A4214BF01200020704738B57C
:1003800004460D461C2200210EF038F8204629466E
:1003900002F06BF9204638BD38B504460D461C22E4
:1003A00000210EF02BF82046294602F073F9204672
:1003B00038BD000008B50348FFF7D9FFB0FA80F058
:1003C000400908BD301200202DE9F04F93461F462A
:1003D00002680025836889460446A84600262DED5C
:1003E000088B1A608DB00A6808EE105A8B68DFED32
:1003F000B08A1A60AF4B1A689A46D96812040A602C
:10040000D7ED007AF4EEC87AF1EE10FA40F34781A6
:10041000A848FFF7ACFF002840F08A80DAF80820EF
:10042000DAF80010116040F2E33006F0F1FC2046EB
:10043000FFF79DFF2268002840F08180A1689E4858
:1004400001360A60FFF738FF07EE900A0546584666
:10045000A7EEA88A07EE906AF8EEE77AC8EE277A48
:1004600017EE908AFFF783FF00286BD10A9018EEF1
:10047000100A0EF01DFECDE9080140460EF018FEF0
:1004800089A3D3E90023CDE906013868CDE9042327
:100490000EF00EFECDE9020128460EF009FE1E9B6D
:1004A0003246CDE900018548196804F0FDF884481A
:1004B0000EF07CF8A36822681A60824B9A681B6869
:1004C00013600123D9F80020D9F80C1012040A6037
:1004D000002B28D1226818EE100AE16812040A6085
:1004E000794A916812680A600A930EF0E1FDCDE93D
:1004F000080140460EF0DCFD6BA3D3E90023CDE9F3
:1005000006013868CDE904230EF0D2FDCDE90201E1
:1005100028460EF0CDFD1E9B3246CDE9000167480E
:10052000196804F0C1F80DB0BDEC088BBDE8F08F80
:10053000DAF80020DAF80C1012040A6073E7E168B8
:1005400012047CE740F22D1296422DD1002318EEC2
:10055000100A0A930EF0ACFDCDE9080140460EF0FA
:10056000A7FD51A3D3E90023CDE906013868CDE901
:1005700004230EF09DFDCDE9020128460EF098FD02
:100580001E9B3246CDE900014C48196804F08CF8F6
:100590004E480EF00BF8A36822681A60494B9A681F
:1005A0001B68136002238DE7032E7FF729AF07EE48
:1005B000905AF5EE407AF1EE10FA09D0F1EE047A95
:1005C00007EE108AB4EE677AF1EE10FA7FF718AFF3
:1005D00028460EF06DFD41EC190B40460EF068FD0B
:1005E000824618EE100A8B460EF062FD07EE905A16
:1005F0000023F5EE407A9FED2CBBF1EE10FA41ECB2
:100600001A0B29D10A93CDE908013868CDE906AB68
:100610008DED04BB0EF04CFD1E9B3246CDE9020170
:100620008DED009B2548196804F03EF828480DF030
:10063000BDFFF1EE047A07EE108AA3682268B4EEDB
:10064000E77A1A601F4BF1EE10FA9A681B68136084
:100650004FF003037FF736AF38680A938DED08AB90
:10066000CDE906AB8DED04BB0EF022FD1E9B32469C
:10067000CDE902018DED009B1048196804F014F8D3
:1006800052465B461348009604F00EF8A3682268B1
:100690001A600C4B9A681B681360042312E700234E
:1006A00010E700BFAFF30080000000C01E851040BF
:1006B000F6288440141200205C100020A0FB0008E3
:1006C000C9FB0008F8110020DC110020F1FB000834
:1006D00027FC000866FC00082DE9F0434FF4165192
:1006E00085B0574800F019FA012300220821544828
:1006F00000F015FA4EF628325249534803F0D4FF61
:100700004FF47A7006F084FB5048FFF730FE8046C5
:100710004F48FFF72CFE81464E48FFF728FE06465D
:100720004D48FFF724FEB0FA80F0400901300EF08A
:10073000ADFC02460B46002048490BF089FC0446FC
:10074000B6FA86F00D4640090EF0A0FC0022444B9C
:100750000EF006FD0646B9FA89F00F4640090EF084
:1007600095FC02460B460EF045FB02460B46304612
:1007700039460EF03FFB0646B8FA88F00F464009AE
:100780000EF084FC02460B4630463946354E0EF0DC
:1007900031FB0022344B0EF02DFB22462B46002469
:1007A0000EF0DEFC314F0EF0D3FF02900EF080FC15
:1007B0000B4602462E4803F077FF4FF47A7006F09E
:1007C00027FB2C482C4D1CA3D3E9002303F06CFF1E
:1007D0004FF47A7006F01CFB28480DF0E7FE4FF44A
:1007E0007A7006F015FB26480DF0E0FE192006F0A1
:1007F0000FFBFFF7DFFD0028F8D0C4B13B680024F1
:10080000FA681B0413603368F2681B0413602B68DA
:10081000EA681B041360FFF79FFD03AB039000938E
:1008200002AB184A18491448FFF7CEFDDEE704462C
:10083000DCE700BFAFF30080000000C01E85104061
:100840001C0D0020C1FC0008CCFC00083411002065
:10085000501100206C11002088110020000024405D
:1008600000001040F81100200000F03FDC110020D3
:1008700004FD00082AFD0008C011002048FD000802
:100880006FFD00084C120020A411002037B5102184
:100890002448FFF781FD1E212348FFF77DFD6921D4
:1008A0002248FFF76CFD6E212148FFF768FD5F21AC
:1008B0002048FFF764FD4D211F48FFF760FD4921E7
:1008C0001E48FFF75CFD5D211D48FFF758FD5E21C6
:1008D0001C48FFF761FD1C4C4B211C48FFF75CFDD9
:1008E0001B4D5C211B48FFF757FD4FF4165339226F
:1008F0003821204600F028FA2A461749204603F0FE
:10090000EFF9164C04231822192120460093144BAA
:10091000FFF7B8FC2A461349204603B0BDE8304033
:1009200003F0DEB9DC110020F811002034110020A2
:10093000501100206C11002088110020301200207E
:100940004C120020A41100201C0D0020C01100201A
:10095000C802002014120020410A00085C10002088
:100960000000A040A1020008C36810B52BB94FF4E5
:10097000FD720349034802F089FCBDE810401847A6
:10098000C6FD0008E4FD000870470000C36810B50C
:100990002BB94FF4FD720349034802F077FCBDE820
:1009A00010401847C6FD0008E4FD0008F8B50546EC
:1009B000064655F8044B8CB90D4F386818B14FF006
:1009C000FF3105F0DFFA346824B928462C4603F0DD
:1009D00015FF3560386808B105F0ECFAAC4204D078
:1009E0008B220449044802F051FC2046F8BD00BFA8
:1009F000985B0020F0FD000812FE00080368012249
:100A000000211B691847036800221B69114618471B
:100A10006FF01500704780F834130020704780F89D
:100A200050120020704790F83403704790F850023D
:100A3000704700207047012070476FF01C0070471E
:100A40000A4B10B5036048330446C0F8E430D0F8D0
:100A50003C0310B103685B68984704F5407003F0ED
:100A60000DFF204600F0CEFD204610BD40FE0008E0
:100A7000A0F1E400FFF7E4BF10B50446FFF7E0FF84
:100A80004FF45071204603F05FFB204610BDA0F1EB
:100A9000E400FFF7F1BF37B500F54075044601915A
:100AA000284603F0B3FE0199204600F0E6FD2846F3
:100AB00003F0CAFE002003B030BDA0F1E400FFF750
:100AC000EABF37B500F5407504460191284603F0AA
:100AD0009DFE0199204600F019FE284603F0B4FE61
:100AE000002003B030BDA0F1E400FFF7EABF10B46E
:100AF0000168D0E90132541001EB6200D20748BF0F
:100B00000A595DF8044B48BFD35818470120704775
:100B10006FF01C0070470020704700F0DFBC30B55C
:100B200000F5407585B0044628460193CDE90221C1
:100B300003F06CFE20460399DDE9013200F0E2FC8F
:100B4000284605B0BDE8304003F07EBED0F83C0337
:100B500008B520B100F01AFC003818BF012008BD0C
:100B600030B587B00025044602ABCDE900550ECB69
:100B700000F001FD84F8365307B030BD30B50123D5
:100B800087B000250446CDE9005302AB0ECB00F040
:100B9000F2FC84F8355307B030BD10B5044602F0BE
:100BA00045FCD4E940239A420ABF94F80841002446
:100BB00084F0010402F050FC204610BD38B5044614
:100BC00000F5407504F5FA74284603F01FFE204630
:100BD000FFF7E3FF48B9284603F036FE012003F093
:100BE0001AFB284603F012FEF1E7284603F02CFE1C
:100BF000002038BDA0F1E400FFF7E0BF38B505469E
:100C0000E830FFF7CAFF80F001042846E4B2FFF79E
:100C10009DFF18B144F40054204638BD02F006FC94
:100C200095F8FC5202F018FC002DF5D144F01004A8
:100C3000F2E7A0F1E400FFF7E1BF70B504460D460E
:100C400002F0F4FB02F0F2FB94F8086102F004FCFD
:100C500056B1D4F80431FF2B03F101020ABF00237F
:100C6000C4F80421C4F80431D4F80021531CB3F5AE
:100C7000807FC4F80031297808BF0023A15408BF41
:100C8000C4F80031D4E940239A4204BF012384F818
:100C90000831BDE8704002F0DFBB38B504460D46B0
:100CA00002F0C4FB2046FFF778FFB0B9D4F8043156
:100CB0005A1CC4F80421E35C2B70D4F80431B3F55A
:100CC000807F4FF0000308BFC4F8040184F80831A6
:100CD000012402F0C1FB204638BD0024F9E70000E2
:100CE00010B586B004466846039180E80C0006A85B
:100CF00000E90C0010E90700034B84E807002046D8
:100D0000E36006B010BD00BFEF0A000870B588B000
:100D100000260C4B044604AD014602933346094AB3
:100D200028460396FFF7DCFF079B204601960093B9
:100D300095E80E0000F01FFC012384F8363308B05C
:100D400070BD00BF310E000838B5044600F080FBCE
:100D5000114B002504F5407003F10802503384F86C
:100D6000F0512260C4F8E43084F8FC52C4E97A55AA
:100D7000C4E9BD5503F042FD084B2046C4F830538A
:100D8000C4F834330123C4F83C5384F83833FFF7F4
:100D9000BDFF204638BD00BF38FE0008010000013D
:100DA00070B588B00B4B0446014604AD0293002396
:100DB000084A284601260393FFF792FF079B204627
:100DC0000196009395E80E0000F0D5FB84F835639A
:100DD00008B070BD4B0F000884B070B5064605AC76
:100DE00006F5497584E80E0002F020FB94E80F0038
:100DF00085E80F00D6F8303343B147F6FF7130462F
:100E0000FFF7FCFE10B12846FFF7AEFDBDE87040CD
:100E100004B002F021BBA0F1E400FFF7DDBF08B58C
:100E2000D0F830331BB100F54970FFF79DFD08BDC8
:100E3000F7B500F1E80504462846FFF7AEFE064682
:100E400002F0F4FA94F8F07102F006FB77B920464C
:100E500000F06FFB50B1204600F0FCFB0DF10701E4
:100E60008DF807002846FFF7E8FEE9E794F83633E7
:100E70004BB102F0DBFA94F8F07102F0EDFA17B121
:100E80002046FFF76DFE36B12846FFF786FE10B903
:100E90002046FFF7C4FF03B0F0BD2DE9F743064637
:100EA00089461546002A4AD000F5407706F1E80841
:100EB000384603F0ABFC4046FFF76FFE044698B19E
:100EC00096F83433384633B903F0BEFC6FF00A00AD
:100ED00003B0BDE8F08303F0B7FC012003F09BF9F9
:100EE000384603F093FCE6E709EB0401A5420191C3
:100EF00009D04046FFF751FE28B901994046013418
:100F0000FFF7CBFEF0E702F091FA96F838337BB1A9
:100F100096F8363363B93046FFF78AFF02F086FA57
:100F200096F8F05102F098FA15B93046FFF7EEFE48
:100F300002F092FA384603F087FC2046C8E71046D4
:100F4000C6E7A0F1E400FFF7A8BF73B5044602F0BE
:100F50006DFA04F5FA7694F8FC5202F07DFA204618
:100F600000F0F8FA58B10DF107013046FFF795FE91
:100F700028B19DF80710204600F06FFBEFE794F8CA
:100F800035333BB104F5FA70FFF707FE10B1204688
:100F9000FFF7F4FD6DB102F049FA94F8FC5202F04B
:100FA0005BFA35B92046FFF7D1FD10B92046FFF7AF
:100FB00036FF02B070BDF8B505460C46164600F582
:100FC000FA773846FFF7E9FD40B1A719BC4209D0CE
:100FD00014F8011B284600F040FBF7E72846FFF70E
:100FE000B4FFEEE73046F8BD2DE9F04704468846E9
:100FF0001746002A64D002F016FA054630B13A4688
:1010000041462046BDE8F047FFF7D5BF04F54079DB
:1010100004F5FA76484603F0F9FBAF4246D902F0F0
:1010200005FA94F8FCA202F017FABAF1000F14D0F6
:1010300094F83433D3B3484603F006FC012003F0A0
:10104000EAF8484603F0E2FB02F0F0F994F8FCA25B
:1010500002F002FABAF1000FEDD102F0E7F994F8CC
:10106000FCA202F0F9F9BAF1000F0AD101354146AC
:10107000304608F1010AFFF7E0FDAF42D046ECD15F
:101080003D4602F0D3F994F8373363B194F8353321
:101090004BB92046FFF759FF3046FFF77EFD10B9E8
:1010A0002046FFF77DFE02F0D7F9B6E7484603F089
:1010B000CBFB002D14BF28466FF00A00BDE8F08777
:1010C0001046FBE7A0F1E400FFF78EBF07B50190E3
:1010D00002F0ACF90121019809F02EFB03B05DF894
:1010E00004EB02F0B9B907B5019002F09FF90021B5
:1010F000019809F021FB03B05DF804EB02F0ACB9F4
:1011000007B5CDE9001002F091F9DDE9001009F012
:101110000FFB03B05DF804EB02F09EB94168034693
:1011200030B471B1D0E9032000F0010402B944B138
:10113000451001EB60000CB149598A58996830BCE0
:10114000104730BC70470000044B10B504460360E4
:10115000806A08B101F0DEFD204610BDD8FE00080F
:1011600010B50446FFF7F0FFD021204602F0ECFF57
:10117000204610BD37B505460446019155F8303B71
:101180001B6898470199284609F08AFE236805469E
:1011900020465B689847284603B030BD70B50446CA
:1011A0000E46054654F8303B1B68984756B100215F
:1011B000204609F021FE2B68044628465B689847C4
:1011C000204670BD0121F3E770B50546044655F889
:1011D000303B1B689847284609F052FD236820469B
:1011E0005B68BDE87040184770B50546044655F881
:1011F000303B1B689847284609F046FD2368204687
:101200005B68BDE87040184770B590B00D46144655
:1012100000211C2202A80DF0F1F801260023294626
:1012200002A800961A4601F038FA1C22002109A8EB
:101230000DF0E4F80023214609A81A46009601F0B3
:101240002CFA0A9B1A68099B1A4203D16FF001001D
:1012500010B070BD039B1968029B194043D109A8C7
:101260000A24FFF74DFF09A8FFF730FF002109A866
:10127000FFF746FF099B0C9A05201B04136002F040
:10128000CCFF012109A8FFF73BFF0B9B099A052022
:101290001A6002F0C2FF013CE8D102A8FFF716FF76
:1012A000029B059A05201B04136002F0B6FF0B9BFE
:1012B000099A05201A6002F0B0FF049B029A0520EB
:1012C0001A6002F0AAFF02A8FFF70DFF09A8FFF7B6
:1012D0000AFF0A9B1A68099B1A42B7D0039B1A6837
:1012E000029B1A42B2D00020B2E7000008B50348C2
:1012F000FFF75CFBBDE8084003F088BA68120020E5
:1013000008B50348FFF752FBBDE8084003F09CBA5C
:1013100068120020F8B5194B0D4600F13007002186
:1013200003600446164B164601619822818543618D
:101330008061C0E90711C0E9091138460DF05EF877
:10134000104B2046C4F8C830FFF7D0FF324629467C
:101350002046A4F8CC50A4F8CE60FFF755FFB4F9AE
:10136000CE20B4F9CC10384609F050FC064B20468C
:101370001C60FFF7C5FF2046F8BD00BFD8FE00087F
:101380001D110008A08601009012002083681A68D1
:1013900043681A4214BF01200020704703460144ED
:1013A000002010B5074C99420AD013F8012B80EAAF
:1013B00002600822400028BF6040013AFAD1F2E7FB
:1013C00010BD00BFB71DC10470474168034630B46B
:1013D00071B1D0E9032000F0010402B944B1451015
:1013E00001EB60000CB149598A58996830BC10472C
:1013F00030BC704770B500F14C060446B0F9C0200F
:10140000B0F9BE1030460AF06FFBD4E932530DB983
:10141000DA070ED55A1094F8D01004EB6300DB07FE
:1014200048BFA358B4F9D22048BF5D59B4F9D430AD
:10143000A847D4F8B81030460AF0D8FA2246304609
:101440000249BDE8704008F021BF00BF69160008DE
:101450002DE9F04198461E4B0025164603604C22AC
:101460001C4B04460F468560436029461A4B858411
:10147000C36045634564A0F848500061C0E9055564
:10148000C0E9075510440CF0B9FF40F201132046A3
:10149000C4F8A450A4F8BC304FF6FF73A4F8BE7093
:1014A000A4F8C060C4F8CC5084F8D050A4F8D2306E
:1014B000A4F8D430C4F8E050C4E92D58C4E931553B
:1014C000C4E93655FFF796FF2046BDE8F08100BF1E
:1014D000F0FE0008F5130008CB13000870B50646AF
:1014E0000D46044656F84C3B1B6898473046294643
:1014F0000AF07CFA23682046C4F8B8505B68BDE85F
:10150000704018477FB505460446019355F84C6B6B
:10151000CDE902213668B04728460399DDE901325A
:101520000AF074FA236820465B6804B0BDE8704096
:10153000184738B50546044655F84C3B1B68984794
:1015400028460AF007FA2368054620465B68984754
:10155000284638BD38B50546044655F84C3B1B684F
:10156000984728460AF006FA2368054620465B6835
:101570009847284638BD84B02DE9F04709AE0546A6
:101580009DF8347086E80E0003683C011B6898479C
:1015900095F8BC3003B18FB195F8BD300BB1012F78
:1015A0000CD02C4496E80F00983484E80F002B6888
:1015B0002846BDE8F0475B6804B0184704F1980876
:1015C00001F034FF0C9A05F14C09A844D8F80C300E
:1015D00082B10BB902F0AAFA2C4496E80F009834B5
:1015E00084E80F0001223946484608F05BFE01F00E
:1015F00033FFDCE70BB102F0AFFA0022C8F80C2091
:10160000F1E7000070B586B00C4B0026044602AD31
:101610000360CDE9006695E80E00FFF7ACFF0123FB
:101620002046CDE9006395E80E00FFF7A4FF206A8D
:1016300008B101F06FFB204606B070BDF0FE000857
:1016400010B50446FFF7DEFFE421204602F07CFDE2
:10165000204610BD4C3008F0A9BE10B50C464C30E9
:1016600008F0D4FE204610BD00EB0110983008B5FC
:10167000C3680BB1FFF778F908BD036870B504467D
:101680001B680D46984794F8BC30AB422BD065B12F
:1016900094F8BD304BB9A2686368511004EB620046
:1016A000D20744BF6258D358984701F0BFFE05B334
:1016B000D4F8A4305BB104F19800FFF755F902F0BB
:1016C00035FA0122002104F14C0008F0EBFD01F095
:1016D000C3FE84F8BC5035B994F8BD301BB904F191
:1016E0004C000AF08BF8236820465B68BDE8704028
:1016F00018472A46294604F14C0008F0D3FDD4F8D7
:10170000A430002BE3D002F027FAE0E7036870B5BD
:1017100004461B680D46984794F8BD30AB422BD069
:1017200065B194F8BC304BB9A2686368511004EB02
:101730006200D20744BF6258D358984701F076FE42
:1017400005B3D4F8B4305BB104F1A800FFF70CF98D
:1017500002F0ECF9012204F14C00114608F0A2FD60
:1017600001F07AFE84F8BD5035B994F8BC301BB94D
:1017700004F14C000AF042F8236820465B68BDE89B
:10178000704018472A46012104F14C0008F08AFDF8
:10179000D4F8B430002BE3D002F0DEF9E0E70368C0
:1017A0001B68184710B5084B044600220846236002
:1017B0000023A1610549C4E902230023C4E90433DD
:1017C00001F0B4F9204610BD08FF00089F1700087B
:1017D00007B500F108010090806901F0E6F903B057
:1017E0005DF804FB00F10801806901F00DBA0020EA
:1017F000704700290CBF6FF01800002070470120CF
:1018000070476FF0150070476FF01500704784B097
:1018100001A804B080E80E0070474FF0FF3100F0DF
:1018200024B810B40168D0E90132541001EB620011
:10183000D20748BF0A595DF8044B48BFD358184730
:1018400038B500230446836519B90A4600F00FF83D
:1018500003E0002AFAD100F042F8204638BD10B566
:10186000044600F04FF8204610BD00F057B9032998
:1018700038B5044607D9D31C23F003039A1A8A1AF1
:1018800022F003011A4600230D46E260C4E9043346
:1018900005BB22622560C4E9065100F009FA00F098
:1018A00009FA2581606004F1300084F82450C4E90D
:1018B0000A5500F01FFA00280BDB04F1440000F089
:1018C00011FA002805DB04F1480000F00BFA00EAE9
:1018D000E07038BD23696D0801332361D8E737B55F
:1018E0000546084601910CF067F9044638B10246F6
:1018F00001992846FFF7BBFF6C6103B030BD4FF084
:10190000FF30FAE770B504460568B5B9A36A1BB1A4
:101910004FF0FF31E06A984704F1480000F0E4F925
:1019200004F1440000F0E0F904F1300000F0EAF9BD
:101930006069BDE870400CF047B9EE6836B9EB69F4
:1019400013B105F124009847AD68DEE7F36913B1E0
:1019500006F124009847F668F0E773B5064627318C
:10196000483021F00305019000F0BFF906F118039B
:10197000B46901985CB9F3699D4223D8346A5B1B52
:101980006219F361012332622560237107E0226846
:10199000954213D8E26872B11A60A368936000F0B0
:1019A000A6F900234FF0FF32E361C4E90532243485
:1019B000204602B070BDA2681A60F0E704F1080387
:1019C000A468D7E700F093F9F2E751F8083C73B543
:1019D00005460C460BB108469847EB6833B1A4F1B5
:1019E0002406B34202D82B6AB34204D2002304F87F
:1019F000203C02B070BD05F14800019000F075F97F
:101A000005F11802AB690198ABB11D6854F8241CAC
:101A10008D420CD30FD144F8183C13689B6844F8EE
:101A20001C3C166002B0BDE8704000F060B903F1E4
:101A300008029B68E8E7002344F8183C1368EEE7C7
:101A4000F8B54B6900F1440705460C469B1A16464B
:101A5000002BACBFD318131C4B61437A38464B7133
:101A600000F043F9284603687BB359696269A1EB2A
:101A7000020CBCF1000F25DB914226D19B68A360CC
:101A800013B104F108021A6103682246002142F8EA
:101A90000C3F99601A61AB6A046020616BB195F8E4
:101AA000242052B12A68A24207D1E2682AB96169AA
:101AB000E86A891B21EAE17198473846BDE8F84099
:101AC00000F015B903F10800CDE7A36013B104F1EC
:101AD00008021A610023E360DDE7F8B51446054605
:101AE0000F46A2F1240600F0E5F854F8103C024637
:101AF0003146034444F8047C284644F8103CFFF780
:101B00009FFF296914F8204C05F130008C40E968EA
:101B1000761A00F0F9F834432046F8BD2DE9F74F66
:101B200004460F464FF0000800F0C4F804F14406E4
:101B3000054607EB000984F82480304600F0D5F80C
:101B4000637A01A90133637263685B1B002B23680E
:101B5000D8BF656001931BB15A69521B002A33DD5F
:101B6000236003B11C613046C1F8008000F0BFF86B
:101B7000019B01A863BB019D4FF0010A002D34D1E8
:101B800000F098F8002F82465CDBA9EB0005002DE1
:101B90005ADCA36A9BB1304600F0A7F8A36A43B1B0
:101BA000226832B15169E06AA1EB0A0121EAE171D0
:101BB00098470123304684F8243000F098F8002339
:101BC000237203B0BDE8F08F03F108019B68C2E700
:101BD0009D681A46002191601146D268002AFAD108
:101BE000016003F108002B46C4E72B6AD5F808B062
:101BF00013B105F124009847AA69002A0BDB6B6931
:101C000013446B6100F056F8294602462046FFF760
:101C100017FF5D46B2E7E36873B1AB420CD8236AA5
:101C2000AB4209D32B7922690133DBB213FA02F2FA
:101C300014BF2B7185F804A005F124012046FFF79D
:101C4000C4FEE6E74FF0FF35304600F04EF823685B
:101C50003BB15969A1EB0A0121EAE1718D4228BF2C
:101C60000D46304600F043F8294604F1300000F0FC
:101C70004EF8237A7BB1304600F037F8237A3BB137
:101C800000233046237203B0BDE8F04F00F02FB8B8
:101C9000304600F02CF800F00DF805464DE740F80E
:101CA000101C704740F80C1C704740F8081C704727
:101CB00001F0A2BE07B501F0B0FB70B1084B684659
:101CC000196801F09DF84FF47A720023DDE90001F4
:101CD0000DF08EFD03B05DF804FB02F04FFDF9E757
:101CE000C851002000207047704701F09FBB01F0F1
:101CF000B3BB0000024908B502F01AFD002008BD80
:101D00000CFF000802F01DBD012102F017BD08B54F
:101D1000012341EAE172194602F02EFD431E5842AA
:101D2000584108BDF0B52E4C87B007462378BFF365
:101D30005B8FDB0711D4204601F0DEFF68B1294A32
:101D40004FF440712848FFF77BFD204601F0F6FF75
:101D5000264A2749244801F0C3FF264E264C3578F1
:101D6000BFF35B8F15F001051FD1304601F0C4FFB2
:101D7000D8B1224B294604F140002561236002F0CE
:101D80009FFD04F1540002F039FD4FF40062182168
:101D90001B4B2046009705F0A1F8304601F0CEFF1E
:101DA000124A1849204601F09BFF134805F04CF9F0
:101DB00010F0EF0011D10C4B0293134BCDE903301F
:101DC000124B0D48009302AB0ECB05F093F820B1F7
:101DD0002E220F490F4801F059FA034807B0F0BD11
:101DE000581B0020B81B00205C1B0020C8020020EC
:101DF0005F18000894120020981200205C0E010861
:101E000058130020FD6F00081B1800082318000855
:101E100013FF000842FF000808B50248FFF782FFE1
:101E200008BD00BF51FF000802684C4B9A4270B5D4
:101E30008CB040F090804A4A0023C2F88430BFF34F
:101E40004F8F536923F480335361BFF34F8FD2F820
:101E5000803043F6E074C3F3C900C3F34E335B0133
:101E600003EA0406014646EA81750139C2F8745254
:101E7000F9D2203B13F1200FF2D1BFF34F8FBFF304
:101E80006F8F384C002507A93748236B43F00103B7
:101E90002363236B03F001030093009B236B43F048
:101EA00002032363236B03F002030193019B236B63
:101EB00043F004032363236B03F004030293029BA8
:101EC000236B43F040032363236B03F0400303932E
:101ED000039B03230A930223CDE908350B230B93BD
:101EE0008623079305F0B2FD4FF4005307A91F485E
:101EF000079305F0ABFD322307A91D48079305F0B2
:101F0000A5FD42F6040307A91A48079305F09EFDB4
:101F10002A4607213D2005F015F93D2005F044F93A
:101F2000236B43F000732363236B03F0007304936C
:101F3000049B236B43F080632363236B03F0806374
:101F40000593059B236B43F000632363236B03F02E
:101F500000630693069B0CB070BD00BF008002407A
:101F600000ED00E0003802400000024000040240A2
:101F7000000802400018024010B59EB004467422CA
:101F8000002101A80CF03AFA4FF400734FF480627C
:101F9000CDE9072340230E93102312938023179338
:101FA000E3690BB10023079301A9204605F0C2FCA9
:101FB0001EB010BD40F2DC50704700207047062074
:101FC0007047704784B030B504AC00F1DC0584E89C
:101FD0000E0094E80F0085E80F00BDE8304004B023
:101FE000704784B030B504AC00F1EC0584E80E0015
:101FF00094E80F0085E80F00BDE8304004B070475A
:102000007047C0F8FC107047032A0846024928BFF1
:1020100003220CF0EDB800BF64FF00082DE9F04F7B
:10202000D0F830804FF0000A0446D8F80830D14686
:102030002DED028B85B0019300F1940302911846B7
:1020400008EE103A02F0E2FB029D002D65D0D8F8B0
:102050000020D4F8FC00002A03681CDA002563681D
:1020600041F214029958890605D52021995041F270
:10207000040200219950D4F8FC0002990368DB683F
:10208000984718EE100A02F0DFFB284605B0BDECB9
:10209000028BBDE8F08FDB6A294698475646074613
:1020A0004FF0000B06EB070AD4F8FC0040F2F451A5
:1020B000019B02688A453344926A1BD9C6F5BE6605
:1020C0002946019390470436019B00EB0B013246F1
:1020D00018460CF08DF8D8F80C80D8F80030002B9A
:1020E000BCDBD8F80830B344B144AAF2F457002658
:1020F0000193D7E7294603939047039B00EB0B011D
:102100003A461846B9440CF073F8D4F8FC00294656
:1021100003685B6A9847054697E74946201D05F026
:102120007DF9B0FA80F56D0999E701F015BD000061
:10213000064B10B5044640F8B83B02F09FFB04F193
:10214000940002F09BFB204610BD00BF84FF0008F6
:1021500010B40168D0E90132541001EB6200D207DB
:1021600048BF0A595DF8044B48BFD35818470000D0
:1021700038B50A4B00250446943040F8943C40F8AA
:10218000485C02F03BFB04F1B80002F037FB20464C
:10219000C4F8E850C4F8F85038BD00BF84FF000808
:1021A0002DE9F74F044604300D4605F0A3F9024629
:1021B00000286CD140F2F353D4E91016481E98421F
:1021C00005D8D4F8FC0003685B68984728602D6840
:1021D0005DB9636B0022E16B914246D91968013207
:1021E00041F000411960DB68F5E7D4F834A04FF006
:1021F00000090196D4F8FC0029464E464FF000082D
:102200000368DB6A98470746D4F8FC0006EB070929
:10221000294603689A6A019B03EB060B40F2F453CC
:10222000994512D9C6F5BE669047594640440436D2
:10223000A9F2F4573246B0440BF0DAFFDAF80CA0FA
:102240000026DAF808300193DEE790473A4659460F
:1022500040440BF0CDFFD4F8FC00294603685B6ACC
:10226000984705460028C5D1B3E700226168E263BC
:1022700041F21404085910F0800005D08023104664
:102280000B5141F20803CA5003B0BDE8F08F4FF084
:10229000FF30F9E773B50446002600F1B80528467B
:1022A000019602F0B3FA01A92046FFF779FF002852
:1022B00004DA284602F0C8FA02B070BD019959B19B
:1022C000D4F8E8302BB94FF4FD720549054800F009
:1022D000DDFF04F1DC009847284602F0B5FADEE79E
:1022E000C6FD0008E4FD000838B50E4C054623780D
:1022F000BFF35B8FDA0708D4204601F0FDFC20B164
:10230000094B20461D6001F019FD074C4FF0FF32CC
:102310000021012004F000FDC307F7D52068FFF776
:10232000B9FFF3E75C4F0020685000203D200022F9
:10233000072108B504F006FF3D20BDE8084004F081
:1023400033BF0020704700000022064B1B6802705C
:10235000802243714270E12282701A0CC2701A0A04
:102360000271704720F4F01F10B50446FFF7E9FF33
:1023700020B92046BDE81040FFF7E6BF10BD0000C1
:102380007FB501251F4B4FF4804202AE0446C0E9E1
:1023900001354FF40063C0E90323002383823046F4
:1023A000FFF7E2FF4FF4000325626362C4E90665AC
:1023B0000434204605F084F901AA0221204605F0E4
:1023C0000BF901AA0321204605F006F904230E4A61
:1023D00020460E4904F0ACFF10B1002004B070BDDF
:1023E00004230B4A0B49204604F0DEFF0028F4D1F9
:1023F0002046FFF7C1FD204605F05EFAB0FA80F0F6
:102400004009EBE70080024088370020381F002099
:10241000B81F0020B81E0020F0B505468BB001F0B3
:1024200085FB2846FFF7ACFF0646002843D0202254
:10243000002102A80BF0E2FF204B4FF480600193D3
:102440000BF0BAFB05F1500301AA2946059003934E
:102450004FF480631A480693442304932823079378
:1024600004F0DAFBE864FFF7D7FC10210746FFF71A
:1024700074FA0446B8B1134BC821056043600023C9
:102480008360114BC360FFF70AFC2046C821FFF7A9
:1024900009FC20460D49FFF708FC22460C49384646
:1024A000FFF71BFB04460A20C5F8044102F07CFC40
:1024B0002846FFF73BFF30460BB0F0BD67FF000832
:1024C000E92200086925000851210008890900084F
:1024D0008D090008084608B5FFF746FF012008BD32
:1024E00010B50B4C2378BFF35B8FDB070ED420466F
:1024F00001F002FC50B10748FFF73AFE204601F018
:102500001DFC054A0549034801F0EAFB014810BDDE
:10251000584F0020604F0020C802002031210008E1
:1025200008B5FFF7DDFFC06C20B10121BDE8084010
:1025300004F0B8BB08BD08B5FFF7D2FF0430BDE812
:10254000084005F011B80000C36810B52BB94FF46E
:10255000FD720349034800F099FEBDE8104018479A
:10256000C6FD0008E4FD000813B5044601AA0121D8
:10257000043005F031F8D0B9D4F8F830A3B101999E
:102580004FF6FF7399420FD0D4F8003111F00401D7
:1025900003F0040306D03BB9012104F1EC00FFF77E
:1025A000D3FF01E0002BF8D1019BC4F8003102B049
:1025B00010BD0000EFF3108372B6054A117831B9EF
:1025C000DB43044903F001030B70012313707047D0
:1025D0006D5000206C50002008B5EFF31083DB43F2
:1025E00013F0010304D036220549064800F04EFEE0
:1025F000054A1370054B1B7803B162B608BD00BFD6
:10260000C0FF0008EAFF00086D5000206C50002059
:10261000014B1878704700BF6D50002070B50E4612
:102620000446154608F064F8013609D0204600211A
:1026300008F082F829462046BDE8704008F078B8D6
:1026400070BD38B504460D4603685AB1826820460D
:102650000121136008F070F829462046BDE8384093
:1026600008F066B8C2681B04F1E70022FFF7D6BF86
:1026700037B50D460446019208F03AF8013507D007
:10268000019A0021204603B0BDE83040FFF7D9BFD2
:1026900003B030BD0022FFF7EBBFF8B5069F04463C
:1026A0000E461D4662B91A46FFF7B8FF013603D041
:1026B000236817B1A2681360F8BDE2681B04FAE74B
:1026C00008F016F80136F7D03A4629462046BDE80C
:1026D000F840FFF7B6BF000000487047040001084B
:1026E000024B1B680BB1024818477047CC02002010
:1026F000040001081FB5431C10D105B05DF804FBB0
:1027000083420AD18968039008F082FE0021039871
:1027100005B05DF804EB08F001BF0C31B1F90030F1
:102720005A1CEDD10023024602490348009301F0F0
:1027300043F800BF3000010830010180884207B52E
:1027400002460AD0431C08D0013105D000230549B8
:102750000548009301F030F80146084603B05DF8E3
:1027600004FB00BF4100010830010180B1F90030D5
:102770005A1C01D118467047834201D148687047FE
:102780000C31F3E7421C13B504460AD0FFF7EEFF05
:10279000431C06D10023224603490448009301F05C
:1027A0000BF802B010BD00BF5200010830010180DB
:1027B000B1F900305A1C01D118467047834201D14B
:1027C000886870470C31F3E72DE9F74F44680646F7
:1027D00094F83A10002955D1016849688847716812
:1027E0000546096A81424DD0206A4FF0000EE1682B
:1027F000281AA66825620140374886428C4639D09F
:1028000094F83BB00027A1FB0001D4E90A5ABBF1C0
:10281000000F46D0CBF1200820FA0BFCABF1200EC4
:102820002D1801FA08F8ABF1200921FA0EFE4AEB47
:10283000010A4CEA080CCBF120084CEA0E0C21FAF4
:102840000BFE0CFA09F90EFA0BF12CFA08F80CFA47
:102850000BF041EA09012B1A41EA080100936AEBE7
:1028600001030193DDE90023BB4208BFB2420CD251
:10287000C4E90A23D4E90C0110EB0C0041EB0E0172
:10288000C4E90C0103B0BDE8F08F1CF1010C009B02
:102890004EF1000E9A1B019B63EB0703C4E90A2368
:1028A000E8E732463B460CF0F3FF12EB050884469E
:1028B0008E4643EB0A09B94508BFB04502D2C4E9C8
:1028C0000A89D7E710F1010C41F1000EB8EB0602BE
:1028D00069EB0703E2E700BF40420F00824206D9DE
:1028E0008A420BD9884294BF002001207047884259
:1028F00006D98A428CBF0020012070470120704712
:10290000002070472DE9F74FD0F80480044698F86E
:102910003A30002B76D198F83930002B72D1FFF77E
:1029200053FF65686B68002B6FD0D5E90C01D3E9C4
:102930000023994208BF904205D323685B6903B026
:10294000BDE8F04F1847161AD5F8109063EB010751
:10295000D5E90623BB4208BFB24206D3AA68324B70
:102960009A4211D1B14528BFB1462A6AD8F8203021
:102970009144EA6809EA0202934233D140F21B1201
:102980002A492B4800F082FC95F83B30EBB1A3F1CB
:10299000200CC3F1200207FA03F106FA03F006FA4D
:1029A0000CFC26FA02F2234E002341EA0C018019A6
:1029B0004FF0000641EA02011B4A46EB01010CF010
:1029C00067FF814528BF8146CFE7A2FB06AB1948C8
:1029D0000021002302FB07BB1AEB0000124A4BEB5D
:1029E0000101ECE72368104601921B6998472368B0
:1029F0005B689847019A0146D8F82000FFF76EFF00
:102A000000289AD103B0BDE8F08FD8F81030D8F87C
:102A10002000D8F80C201844236810401B6903B02C
:102A2000BDE8F04F184700BF40420F007200010898
:102A3000920001083F420F00436893F838202DE9C7
:102A4000F04F054685B0002A62D193F83A30002B4A
:102A50005ED103681B6898472B68DB699847036859
:102A60002BB91A462C492D48009300F0A5FE1F21D2
:102A7000012202FA01F45FFA81FAA34202D001397D
:102A8000F7D18A464668321F1C2A05D900232449FB
:102A900024481A460093E8E71C46072700232249EA
:102AA00014F1FF3807FA02F7224643F1FF39C1FB60
:102AB0000789404649464FF000080CF0E9FE6B6874
:102AC0002A688946834603935268C3E90088904781
:102AD0000122039B002102FA06F6186200206B68AF
:102AE000013EC3E90A01C3E90C019C60284683F852
:102AF0003BA01A8783F83A80C3E90367C3E906B9A4
:102B0000FFF762FE284605B0BDE8F04FFFF7FABEBA
:102B100005B0BDE8F08F00BFB60001080E010480CB
:102B2000CF0001080501048040420F0038B505467A
:102B30000C46FFF781FF00F079FC6B681C60BDE874
:102B4000384000F089BC70B5044600F06FFC236883
:102B5000DB689847636893F83A201AB1BDE8704083
:102B600000F07ABC012283F8392063685B68A3B166
:102B70002046FFF729FE65686E68D5E90C01D6E9A5
:102B80000023994208BF904207D3F3686B602B681B
:102B9000002BEAD0B0689847E7E763680022204638
:102BA00083F83920FFF7AEFED8E72DE9F7430A9DF9
:102BB0000C4690469946019000F038FC0198FFF7CA
:102BC00003FE01980021A56042685368C4E90089AA
:102BD0002BB9E36061B95460FFF794FE0FE0D3E9CD
:102BE0000067B94508BFB045F3D31946DB68EFE786
:102BF000D2E90C23CC604B4508BF4245ECD203B070
:102C0000BDE8F04300F028BC38B505460C4600F09E
:102C10000DFC6A685368A34209D1DB6828465360FB
:102C2000FFF770FEBDE8384000F016BC1346002BDD
:102C3000F8D0DA68A242F9D1E268DA60F2E738B592
:102C40000446FFF7F9FE00F0F1FB2046FFF7BCFD5C
:102C50006368D3E90C4500F0FFFB2046294638BDE8
:102C600008B5FFF7ECFF08BD70470000004870474B
:102C70000C010108024B1B680BB102481847704752
:102C8000D00200200C01010808B5BFF35F8F164B7E
:102C90001968080AC1F3072110F0FC0F04D13B2288
:102CA0001249134800F0F2FA002210465A608A4294
:102CB00016D11022DA600F4A1A611322DA600E4A26
:102CC0001A611122DA600D4A1A610D4ADA600D4A62
:102CD0001A6107225A60BFF34F8FBFF36F8F08BD91
:102CE0009A6001321861E2E790ED00E038010108D6
:102CF0005901010839F00206390702133FF50B1399
:102D00001200008039000213B1F90C20B1F904104F
:102D100008F0EABE024B1B6803B11847704700BFBA
:102D2000F050002007B5019000F080FB019803B03F
:102D30005DF804FB07B5019000F08EFB019803B02D
:102D40005DF804FB0368012200211B6970B504468D
:102D50009847051E0DDB23680222002120461B69CF
:102D60009847064623682946354600221B692046B7
:102D70009847284670BD000010B50446FEF712FDC6
:102D8000084BA0692360FFF75AFF00220023C4E923
:102D90000C230023C4E90801C4E90A01A363204607
:102DA000A38710BDBC0101084FF0FF307047000041
:102DB00038B590F83C50044625B18E2209490A489E
:102DC00000F064FAFEF70EFD94F83D3084F83950B7
:102DD00084F83A502BB184F83D50BDE8384000F0FB
:102DE000BBBE38BD660101088D01010810B504465F
:102DF00001F1300000F07FFAC4E90001204610BD67
:102E000010B504468869FFF71AFFC4E9000120469F
:102E100010BDD0E90C32013342F10002C0E90C329E
:102E2000D0E90A3213F57A7342F10002C0E90A329E
:102E30007047D0E90A2312F57A7243F10003FEF7D6
:102E4000C7BCF8B50D4604468869FFF7F8FED5E91A
:102E50000A32C61A61EB0207002F08BFB6F57A7F67
:102E600005D200220023C4E900232046F8BD002F2C
:102E700008BFB6F5FA6F01D20122F3E7002E4FF436
:102E80007A72304677F101034FF00003B4BF00219E
:102E900039460CF0FDFCC4E90001E6E791F83C304E
:102EA000F7B505460C4613B991F8396026B1E02212
:102EB0001149124800F0EAF96846FFF7C2FF4FF4E3
:102EC0007A7184F83860DDE90032A3FB016701FB09
:102ED0000277D4E90A10891947EB0000C4E90A1007
:102EE000D4E90C105B1840EB02022846C4E90C320E
:102EF000C5E9003203B0F0BD660101089701010881
:102F00002DE9F743994690F83C300446904623B1AA
:102F100058223349334800F0B9F990F8395065B96F
:102F200001466846FFF7BAFFDDE900234B4508BFBD
:102F3000424505D3012384F83A3003B0BDE8F0835D
:102F400021466846FFF752FF009B84F83A50B8EBE1
:102F50000306019B69EB03074FF47A73A8FB030197
:102F600003FB0911D4E9082310EB020894F83D2073
:102F700041EB0309012384F8393062B9A269126870
:102F800092F8202032BB84F83D3000F0CFFD002FB6
:102F900008BF052E0DD2002384F83B3094F83D3055
:102FA00023B9012384F83D3000F0C0FD42464B4672
:102FB0000AE094F83D30002BEDD10123B8F57A6298
:102FC00084F83B3049F1FF33204603B0BDE8F043BD
:102FD000FEF7FEBB002F08BF052EDCD3EDE700BFD8
:102FE000660101088D010108024B4FF080625A60B2
:102FF000704700BF00ED00E008B50121383000F057
:1030000062F908B1FFF7F0FF08BD012310B580F8A1
:103010003C30044690F838300BB1FFF7E5FF20460E
:10302000FFF707FF10BD90F8393010B504464BB1DB
:10303000002380F8393090F83B3013B9012380F831
:103040003A3010BD90F83C30002BFAD090F8383070
:10305000013380F83830FFF7C7FF2046FFF7D9FE6D
:103060002046FFF7E6FEECE7024B4FF000725A6095
:10307000704700BF00ED00E010B50446FEF7B2FB5C
:10308000002384F83C30FFF7EFFF10BD102300F061
:1030900007B8202300F004B8302300F001B8402323
:1030A0009C46F0B404AE7546E80801D3EFF30986F8
:1030B0000E4F0FCE0FC70FBC0FC7404649465246B2
:1030C0005B460FC71DCE3100A60A00D304316E093E
:1030D00000D248311FC7EFF309806946EFF3148629
:1030E00063C76046014900F079F800BFC8010020BD
:1030F000F0B52C4E85B000242B4F354621460134C7
:1031000056F8042B384600F075F90D2CF6D1AB6C4F
:10311000264C02936B6C264801932B6C0093696BD1
:10312000D5E90E2300F066F92168224800F062F923
:10313000E16AA26AA36AA06AD2B2266BC3F307232C
:10314000E76B000CCDE9016700901B4800F052F9D5
:10315000A36A1E0603D5616B184800F04BF9A36AF9
:10316000180403D5A16B164800F044F9EB6C19075D
:1031700012D5144800F03EF92B6DDA070FD512482E
:1031800000F038F9EB6C5B074CBF1048104805B0F5
:10319000BDE8F04000F02EB90E4800F02BF90E48C3
:1031A000EEE700BFC8010020C001010800ED00E00B
:1031B000CE0101081D0201082B0201087A02010854
:1031C0008802010896020108A5020108D50201083B
:1031D000E1020108C5020108B202010807B5044670
:1031E0000D461A48012100F080F868BB184800F02D
:1031F00001F9302C19D0402C1CD0202C1FD1154C9B
:10320000154800F0F7F8154800F0F4F8FFF770FFE4
:10321000134800F0EFF80D4B00221A7000232A46E5
:1032200010492046009300F0C7FA0F480F4C00F0F9
:10323000E1F8E8E70E480F4C00F0DCF8E3E70E4851
:103240000E4C00F0D7F8DEE70024E7E7505B0020E3
:10325000ED0201083E01FF80160301084303010847
:103260004E0301086D030108250301083F01FF809B
:103270002E0301084001FF80390301083D01FF8052
:103280000AF0AABC0BF0C0B90AF042B907B50B4668
:10329000009201460022014800F08EFA4401FF80AE
:1032A00003460122D3E84F0FC3E8412FC0B20029E3
:1032B000F8D17047D0E85F3F5B18C0E8523F002A62
:1032C000F8D198B27047D0E84F3F5B1AC0E8423F50
:1032D000002AF8D1D8B27047D0E85F3F5B1AC0E847
:1032E000523F002AF8D198B27047D0E84F3FC0E86B
:1032F000421FD8B2704738B5044600F097F8D4E9B9
:10330000004500F0A9F82046294638BD00B589B02F
:10331000144E154D00F08AF8102101A8FFF7BAF9F4
:103320000424039B3046019A1A6000F076FF019B4B
:10333000049A30461B04136000F06FFF013CF0D18B
:103340000424039B2846019A1A6000F066FF019B43
:10335000049A28461B04136000F05FFF013CF0D183
:10336000DEE700BFF0490200801A060073B50022B4
:1033700001460446022000F05DFD0D2600F056F8DF
:103380000022254614F8013B1BB900F065F802B095
:1033900070BD0A2B09D10D2A07D001220DF10701BA
:1033A00002208DF8076000F045FD01222946022029
:1033B00000F040FD14F8012CE3E7000000B5A3B0D5
:1033C00002460B46842101A801F084F9832806D91E
:1033D000074B1A681B79CDF883208DF887300028B9
:1033E00002DD01A8FFF7C2FF23B05DF804FB00BFB8
:1033F0007D0301080FB407B504A951F8040B01912E
:10340000FFF7DCFF03B05DF804EB04B07047EFF3A7
:103410001080C04300F001007047EFF305800038D2
:1034200018BF01207047FFF7F3B8000008B5FFF799
:10343000C1F8064A1368591C04D13F2204490548C3
:10344000FFF724FF0133136008BD00BFF4500020D4
:1034500082030108AC030108044A136823B1013B4D
:1034600013600BB9FFF7B8B8704700BFF4500020E5
:1034700008B50B48FFF714FF28B1FFF7D7FFBFF3DC
:103480004F8F20BFFDE7FFF7C8FF08B1FFF73EFFF2
:10349000FFF7BDFF0028F9D0012000F01DFE00BF9E
:1034A000405100202DE9FF41464C0E46804617460C
:1034B00021684548C1F34173032BC1F307430CBF97
:1034C0004D428DB22A46FFF795FF6FF498731D4465
:1034D000132D0FD8DFE805F00A585B5E6167646A58
:1034E0000E0E0E0E0E0E0E0E0E0E0E6DA16837484D
:1034F000FFF780FF4046FFF739FF61683448FFF768
:1035000079FF4EB13348FFF731FF3046FFF72EFF0A
:1035100039463148FFF76EFFA1683048FFF76AFF70
:1035200023682F4A1A44012A05D92E4A934202D011
:10353000033A934241D1A06820B1C06C80F00800EA
:10354000C0F3C000E368002B39D05968264A00292F
:1035500008BF1146E269254D0392A2690292626991
:10356000019222690092224A002818BF2A46214867
:10357000FFF740FF21682048FFF73CFF1F4804B0D9
:10358000BDE8F041FFF736BFA1681D48B0E7A1686C
:103590001C48ADE7A1681C48AAE7A1681B48A7E73B
:1035A000A1681B48A4E7A1681A48A1E7A1681A48C6
:1035B0009EE71A48FFF71EFF9CE70020C2E70A4972
:1035C000C8E700BF44510020F2030108430401088A
:1035D000EB040108FC0401080405010808050108C2
:1035E000C2FE007F4001FF80DD030108E703010800
:1035F0006C0301081C05010875050108C4050108D4
:103600005904010869040108780401088B040108C1
:103610009F040108B3040108C2040108D80401088A
:103620007047000070B52C4C90B00D46164634EA39
:10363000200428BF04463C22002101A80AF0DEFE37
:10364000264B009423440295012B05D9244B9C4220
:1036500002D0033B9C4237D1EB6B01936B6B07931A
:10366000204B5B69DA6B039304925A6B1B6B0592D8
:103670000693FFF7DBFE1C4A13680133012B13602E
:103680000BD16D46194C0FCD0FC40FCD0FC40FCD0C
:103690000FC495E80F0084E80F006C46144D0FCC62
:1036A0000FC50FCC0FC50FCC0FC594E80F0085E8F0
:1036B0000F00104BA5F130001B684BB19847FFF786
:1036C000CBFE002010B070BD0196CDF81CD0C7E72E
:1036D000FFF7A6FFF3E700BF0101FF80C2FE007FF6
:1036E0004001FF80EC030020F85000200051002032
:1036F00044510020FC5000200FB41FB501210D489B
:10370000CDF804E0FFF7F1FD019A044680B90146C7
:103710000948FFF787FF224621460848FFF7C2FE07
:1037200007A906980391FFF749FE0548FFF71EFE1B
:10373000FFF79EFE505B00200001FF80DE050108C0
:103740006B0301087047000038B5164CD4F8803080
:10375000002B25DA3C2104F18000FDF71FFED4F890
:10376000BC3083421CD1D4F8B830CBB90E4B012504
:1037700004F180001D70FFF7E5FFD4F8B430002B92
:103780000EDD3C2104F18000C4F8B850FDF706FEC0
:10379000D4F8B430C4F8BC00002B01DDFFF768FE9C
:1037A000002038BDC801002041510020014B18788D
:1037B000C0B27047505B002080B506460C462748D3
:1037C0000121F04617461D46FFF78FFD48B94246D6
:1037D00039463046FFF726FF029A29462046FFF772
:1037E00061FE1F4E3C211F48FDF7D8FDD6F8BC30C6
:1037F0001D4C3C2183421B4D20460ABFD6F8B430F5
:103800000123013363630023A363FDF7C7FDE06376
:10381000FFF70CFE0FCC0FC50FCC0FC50FCC0FC59B
:1038200094E80F0085E80F00FFF716FE0F48FFF73A
:10383000E1FDD6F8B410002902DD0D48FFF7DAFDEE
:10384000BFF34F8F0B490C4BCA6802F4E06213437D
:10385000CB60BFF34F8F00BFFDE700BF505B002080
:10386000C80100204802002044510020F30501084F
:103870002606010800ED00E00400FA0509B9C82891
:1038800005D010F0030F0CBF012000207047084640
:10389000704700002DE9F04180460C4641B338B333
:1038A0004569A5F14607882F22D88168D0E90036FE
:1038B0004FF4616041433C2000FB06161B4928463B
:1038C0001E44D8F80C30013B01FB03631146FFF79F
:1038D000D5FF0C26D8F81010CE2D06FB0010144989
:1038E00051F820100B4409D122B912498B4207D359
:1038F000002019E0012A03D10F49F7E7462D0FD028
:10390000691E8910A1F111001AB9C82DC8BFA1F113
:10391000120040F26D1202FB0707044A02FB073354
:103920002360012000236360BDE8F0818051010025
:10393000700601088022310000D12F00194670B5B1
:10394000002A52D03C24B0FBF4F304FB13001060B7
:10395000B3FBF4F004FB103418235460B0FBF3F411
:1039600003FB140307209360231DB3FBF0F0C0EBAF
:10397000C000181A46239061536155692846FFF725
:103980007DFF38B1B4F5B77F0DD30135A4F5B77419
:103990005561F2E7B4F5B67F05D901356FF4B6731A
:1039A00055611C44E9E7124B30251249D4615C4350
:1039B0000B2305FB00151361002355F8046BA64289
:1039C0000FD9013B136113690C2505FB003051F839
:1039D00020300120E41A064BB4FBF3F40134D46028
:1039E00070BD01330C2BE8D1EDE71046F8E700BFBE
:1039F000805101007006010838B5064C23683BB9B8
:103A0000054DFEF769FE01462846FFF7B5F925602A
:103A1000206838BDC85100208851002008B583684F
:103A200023B9054B1B6893F83A0008BDC068984756
:103A30000028F6D0F9E700BFC8510020F7B50446CA
:103A40004FF0FF366FF00047164D2046FFF7E6FFB8
:103A500030BBD4E90023BB4208BFB24202D0286881
:103A6000FFF74EFA01A8FFF75DF92046FFF7D6FFF2
:103A700098B9D4E90023BB4208BFB24207D100F095
:103A80008FF801A8FFF756F9BFF36F8FDDE72B68BA
:103A900093F83930002BF2D1F3E701A8FFF74AF988
:103AA00003B0F0BDC851002030B587B00D4D0446BD
:103AB000CDE902230A9B04930B9B0593FFF79CFF20
:103AC00002A8FFF7BBFF2868FFF772F9684629686C
:103AD000FFF7E4F92046DDE90023C4E9002307B03D
:103AE00030BD00BFC85100202DE9F0410E4D86B019
:103AF00006460F4604A829689046FFF777F92B6819
:103B0000DDE9040193F83830C41A02A861F1000518
:103B1000A219CDE9007845F10003FFF7C5FF02982F
:103B2000001B06B0BDE8F081C851002013B5074C5A
:103B300001212046FFF7BEFB034628B900902288EA
:103B400003490448FFF738FE02B010BDCC510020F5
:103B5000D00601082301048013B5094C0121204639
:103B6000FFF7BAFB4FF6FF73984206D10023228875
:103B7000044905480093FFF71FFE02B010BD00BFC7
:103B8000CC510020F206010824010480034B188860
:103B900080B2B0FA80F04009704700BFCC510020DD
:103BA00008B5FFF743FCFFF7F1FF28B108F00CF967
:103BB000BDE80840FFF750BC08F0F4F8F8E76FF0F4
:103BC0001C0070476FF015007047012070470020FF
:103BD00070477047034B186818B14FF0FF3102F07F
:103BE000D1B97047985B0020024B186808B102F009
:103BF000E1B97047985B0020F8B515460C468F1860
:103C0000054EBC4205D014F8011B304606F0FEFB01
:103C1000F7E72846F8BD00BFD06F002038B511F097
:103C200001048DB205D0084807F094FE041E18BFA9
:103C30000124EB0605D5044807F09CFE08B144F0CA
:103C40001004204638BD00BFD06F002010B50446D8
:103C500009F0BAFF204610BD10B50C462AB1044841
:103C600006F0A4FB2070012010BD1046FCE700BF49
:103C7000D06F002038B5084B044615460360074B4B
:103C80001B6833B90648FFF73FF82946044807F098
:103C9000ADFE204638BD00BF30080108185B00208B
:103CA000D06F00200020704700207047012008B529
:103CB00000F012FA074A084913681844884283BF83
:103CC000064B0C224FF0FF3010608CBF1A60184674
:103CD000704700BFD403002000FC04208C7000203B
:103CE000012070470120704708B500F04FFE08BD65
:103CF00008B500F053FE08BD10B50446037803F084
:103D00000303012B08D0FFF765FF237803F00302BC
:103D1000012A03D1FFF768FF00200AE02AB140F230
:103D20008E6204490448FFF7B1FA43F0020323709E
:103D3000012010BD100701083C07010808B50378F1
:103D400003F00302022A05D040F2976206490748B1
:103D5000FFF79CFA23F0030343F001030370BDE86F
:103D60000840FFF741BF00BF100701085A070108CC
:103D70003F2870B504462EDC184D55F820305A1CEB
:103D800013D1022811DCFFF78FFF034658B92046F4
:103D9000FFF788FF034630B9114E3378BFF35B8FCE
:103DA000DB0704D50F4B45F82430184670BD30466C
:103DB000FFF7A2FF0028F5D04FF416520A49094830
:103DC000FFF758FF3046FFF7B9FF084A0849054892
:103DD000FFF786FFE6E70023E7E700BFD4020020F5
:103DE000D05100205452002078080108C802002059
:103DF000D33B000838B505460024FFF7B9FF0B4B4D
:103E000043F8254030B909F059F9092303604FF010
:103E1000FF3038BD03685B699847051E04DA6D42C0
:103E200009F04CF90560F2E72046F2E7D4020020E1
:103E3000FFF7E0BF13B5CDE90021FFF799FFDDE9FA
:103E4000002140B909F03AF9092303604FF0FF342B
:103E5000204602B010BD0368DB689847041EF7DAFD
:103E6000644209F02BF90460F0E713B5CDE90021B5
:103E7000FFF77EFFDDE9002140B909F01FF90923B2
:103E800003604FF0FF34204602B010BD03689B680A
:103E90009847041EF7DA644209F010F90460F0E76D
:103EA00010B5FFF765FF044628B909F007F90923A3
:103EB0000360204610BD0368DB699847041EF8DAEA
:103EC000644209F0FBF804600024F2E72DE9F04FAA
:103ED00085B006460F469046FFF79FFA054630B17B
:103EE000002332462C492D480093FFF765FCFFF76D
:103EF0008EFA0028F4D0B8F1000F09DA09F0DEF8E4
:103F0000162303604FF0FF34204605B0BDE8F08F64
:103F10003046FFF7C5FF044658B3214A2C46DFF868
:103F200084A04FF00D0B935D9146A84521DD7A5D8D
:103F30000A2A1BD10D2B039318D0AC420CDA2A1B92
:103F400039193046FFF776FF0028039BDADB04447B
:103F5000A542D9DC09F80630012251463046FFF768
:103F600069FF0028CEDBCFD009F806B07B5D0135B4
:103F7000DBE7A045C8DDA8EB040239193046FFF79E
:103F800059FF0028BEDB24181FBF3F19044B17F848
:103F9000012C9A55B8E700BF910701082F01018055
:103FA00014520020EFFB0008FFF77ABF7FB50446EC
:103FB0000D461646FFF731FA30B1002322461D495F
:103FC0001D480093FFF7F8FBFFF721FA0028F4D013
:103FD000002E06DA09F072F8162303604FF0FF3066
:103FE00018E02046FFF75CFFE8B1144E01220DF106
:103FF0000F012046FFF739FF0028EFDB0AD09DF8BC
:104000000F300D2B08D1325D0A2A3355EED00A232A
:1040100001202B7004B070BD0A2B02D1325D0D2A35
:10402000F3E73355F4E7324629462046FFF71DFFF4
:10403000F0E700BFCB0701082F010180D451002019
:1040400013B5CDE90021FFF793FEDDE9002140B96A
:1040500009F034F8092303604FF0FF34204602B022
:1040600010BD03681B699847041EF7DA644209F023
:1040700025F80460F0E7FFF7E3BF10B5FFF778FE1F
:1040800030B909F01BF8092303604FF0FF3010BD71
:1040900003689B699847041E04DA644209F00EF82D
:1040A0000460F2E70020F2E70A4D044608B52B68E9
:1040B000986809F035F92B68D86809F031F90120C2
:1040C000FFF7DBFF0220FFF7D8FF0CB1FFF71EF967
:1040D000FEE700BFA004002008B5FFF7E5FF38B5F4
:1040E0000D46FFF745FE044630B908F0E7FF092307
:1040F00003604FF0FF3038BD0368DB699847002844
:10410000204614BF4FF400534FF400436B60236804
:104110009B6A984728610020EDE7FFF7E0BF0000A9
:104120001FB5039009F048FD039A034620B900909B
:1041300003490448FFF740FB05B05DF804FB00BFEE
:10414000070801081F01018009F03EBD09F03CBDD0
:1041500010B504460A48FCF729FC00F057FB094B50
:104160001B6803B19847084B1B6813B1D4E90001E1
:1041700098470348FCF71AFC00F066FB002010BDCE
:1041800060520020E0030020D80300201FB5024643
:104190000B4600216846CDE90211CDE90023FFF767
:1041A000D7FF05B05DF804FB38B504461048FCF7AE
:1041B000FDFB00F02BFB0F4B1B682BB1984718B988
:1041C00000200021FFF7E2FF0B4B1B685BB1984713
:1041D0000025C4E90001A5600548FCF7E7FB00F0F5
:1041E00033FB284638BD4FF0FF300146F0E700BFF3
:1041F00060520020DC030020E40300201FB50446C9
:1042000000216846FFF7D0FFDDE900010CB1C4E9E9
:10421000000104B010BD02F0FBBD70B50446FEF70E
:1042200025FD0646FEF71CFD05463046FEF718FD47
:10423000431BA342F9D370BD70B514466FF000461E
:10424000126805460498B24207D238B101461846B2
:1042500009F0DCF8431C05D1206070BD15B18A421D
:1042600038BFAB54236801332360F6E72DE9F74FDD
:1042700089469A469DF834108046154B9346154F53
:104280000725002908BF1F460023EC002AFA04F482
:10429000E6B20BB906B9ADB9360904F00F0403B99B
:1042A0003EB10C9A4946BB5D404600925A46FFF724
:1042B000C3FF0C9A49463B5D404600925A46FFF7C1
:1042C000BBFF0123013DE0D203B0BDE8F08F00BF8A
:1042D00090080108A00801082DE9F04387B00546C1
:1042E0000E461746DDF838802BB9302307B0BDE8FD
:1042F000F043FFF7A1BF03AA00244FF00A0C914638
:104300000594CDE90344B3FBFCF00CFB1031013400
:10431000303102F8011B194603460929F3D8013C44
:10432000CDF800803A46314619F804302846FFF7A8
:1043300083FF002CF3D107B0BDE8F083000000003C
:104340002DE9F04F1C4687B0002306460D46DDF8E8
:1043500040A093460593AAB1994213DB0CBF0123F9
:1043600001F1FF354FF0000803931BF808306BB9DB
:1043700046B1039B33B9059BAB4295BF039A039BA0
:10438000F2547355059807B0BDE8F08F252B40F027
:10439000758108F101021BF80230203BDBB2102BC3
:1043A00006D8BD4921FA03F3D90748BF08F1020234
:1043B0001BF802302A2B1CD1013204341BF80210E6
:1043C0000BEB02032E2942D159782A2917D04FF03E
:1043D0000009CBF101000A27C21813F8011F303978
:1043E0005FFA81FCBCF1090F0CD807FB0919F3E750
:1043F00001321BF80230303B092BF9D9DEE70232DB
:1044000054F8049B1BF80230682B23D10BEB0203FA
:104410005B78682B0CBF7221112101F00303134458
:104420001BF803700293642F01D0692F45D18229B4
:104430002BD1252305AA29463046CDF800A0FFF749
:10444000FBFE029B252F18BF434602934DE06FF001
:104450000049D7E76C2B07D10BEB02035B786C2B81
:104460000CBF82212121D8E76A2B08D07A2B08D0F3
:10447000742B08D04C2B14BF00216121CDE73121D2
:10448000CBE74121C9E75121C7E7112954F8047B43
:1044900011D0722900D17FB2002F08DA7F422D237C
:1044A00005AA29463046CDF800A0FFF7C5FECDF895
:1044B00000A03B4614E03FB2EEE7752F03D007F0B3
:1044C000DF03582B23D18229B3D0112954F8043BA0
:1044D0000FD0722900D1DBB2752F0CD1CDF800A01E
:1044E00005AA29463046FFF7F7FE029B03F10108B3
:1044F0003BE79BB2F0E7A7F1580257425741CDE99D
:1045000000A705AA29463046FFF7B0FEEDE707F001
:10451000DE03462B72D1073424F00704F4E8028945
:10452000404649460BF0CCF800280746034608DA17
:104530002D2305AA29463046CDF800A0FFF77CFEC2
:104540007B4205AA29463046CDF800A0FFF7C4FEFD
:104550002E2305AA29463046CDF800A0FFF76CFEB1
:1045600038460AF093FD02460B46404649460AF09B
:104570003FFC47A3D3E900230AF0F2FD0022002309
:10458000804689460BF05EF890B3404649460BF0F2
:1045900097F8474238460AF069FD02460B46404606
:1045A00049460AF025FC00223C4B804689460BF028
:1045B00067F830B100223A4B404649460BF042F8CA
:1045C00000B90137012FB946DFF8D88038BF4FF066
:1045D0000109C145CDF800A0BFF46BAF302305AA97
:1045E00029463046FFF728FE0A23B8FBF3F8F0E728
:1045F000404649460BF08CF80746CBE7632F0AD1BB
:1046000054F8043B05AA29463046DBB2CDF800A099
:10461000FFF712FE69E7732F16D154F8048B08F1E7
:10462000FF3717F8013F002B3FF45FAFA9EB0702FC
:1046300018EB020F3FF459AF05AA29463046CDF8D2
:1046400000A0FFF7F9FDECE7702F7FF4F2AE54F80D
:10465000047B302305AA29463046CDF800A0FFF799
:10466000EBFD782305AA29463046CDF800A0FFF7D8
:10467000E3FD0123CDE900A33B4642E705AA294615
:104680003046CDF800A0FFF7D7FDCDF808802CE725
:104690000000000080842E41092801000000E0BFD6
:1046A0000000E03FA08601000FB41FB5084906AB2B
:1046B0000020096853F8042B8968039300916FF078
:1046C0000041FFF73DFE05B05DF804EB04B0704714
:1046D000A004002013B500240094FFF731FE02B0BF
:1046E00010BD07B513460A466FF000410090002048
:1046F000FFF726FE03B05DF804FB00001FB50023A2
:104700000446CDE90013031D68460293102303936A
:1047100000F09EFC206020B9352203490348FEF7D3
:10472000B5FD04B010BD00BFB0080108D5080108F0
:1047300010B50446FFF7E2FF204610BD006800F008
:104740009FBC10B50446006800F0F2FC204610BD86
:1047500010B49DF804400CB942F0020200685DF804
:10476000044B00F0BBBC07B5009313460022FFF7D3
:10477000EFFF03B05DF804FBFFF7F5BF13B5FEF7DD
:1047800055FE00F0BDFE094B04461A6818608242CF
:10479000074A82BF11680131116011680191FEF76B
:1047A0005BFE2046019902B010BD00BF8C52002074
:1047B000885200201FB50023044603620C4B0029D9
:1047C00008BF1946031D684602931C2300910393FA
:1047D0000B23019301F0BEFB206038B9FEF7E6FF22
:1047E00020B93D2203490448FEF750FD04B010BD36
:1047F000D9080108F30801081309010810B5044697
:104800000021FFF7D7FF204610BD000037B5044652
:104810004FF0FF31006801F0B5FB054620B9236A6F
:104820000133236203B030BDFEF7C0FF034600280A
:10483000F8D12A46024903480093FEF7BDFF00BFA6
:104840003709010815010280036A013B13B50362B1
:10485000006801F0AFFB044648B1FEF7A7FF03462E
:1048600028B90090224603490348FEF7A5FF02B08D
:1048700010BD00BF490901081701028010B50446A8
:10488000006801F0AFFB204610BD00001FB50446D4
:10489000002310466A46CDE90033231D02931023FE
:1048A000039301F0A5FC206020B937220249034898
:1048B000FEF7ECFC04B010BD5D0901088109010898
:1048C00010B504464FF6FF72FFF7E0FF204610BD1B
:1048D000006801F0A5BC10B50446006801F0CEFCEC
:1048E000204610BD08B5094A094B1A60094B9B1AAE
:1048F000094A1360094A0A4B1A600A4B9B1A0A4A72
:10490000136000F051F800F083F800BF00FC0420B1
:10491000F452002000000520F0520020907000208A
:104920005C52002000FC04205852002038B50E488C
:104930000B250E4B1C24456003600D4BC460836047
:1049400001F008FB0B4B18600B480C4BC460C0E92E
:1049500000350B4B836001F0FDFA0A4B1860BDE88F
:10496000384009F083B800BFC05200209009010808
:10497000D4520020D0520020905200209D090108FE
:10498000A4520020A0520020FBF7A6BE024B4FF01D
:10499000FF31186801F0F6BAD0520020014B1868B8
:1049A00001F008BBD052002008B5FEF76DF90C4BA2
:1049B0000C4998684FF00053C21802F16042126827
:1049C00043F8042B8B42F7D1054B4FF000529A600D
:1049D00006F092FC07F0CAFABDE8084000F015B8EE
:1049E00000ED00E0C80100207047704708B500F0F6
:1049F00043F8FFF79BFFFFF7F7FFFFF7F6FFFEF720
:104A0000A3FEBDE80840FFF7BFBF00F021BD0000D6
:104A1000114C124B23614FF4805363614423E360D4
:104A20000F4BA3601823A3610E4B07B5224600214C
:104A30000D48236002F0F0F8034628B922460B49DE
:104A400000900B48FEF7B8FE00F01AFD002309495C
:104A50001A460093F5E700BF745B0020A05B0020BE
:104A6000F8520020B7090108ED490008BC09010807
:104A70001D010180D80901081FB5064B6C460FCBFC
:104A800084E80F00204601F065FA034B186004B07B
:104A900010BD00BFF0090108985B002073B5064601
:104AA0000C461546FEF782FE58B9063432462846B3
:104AB0002ABF054B054953F8241000230093FEF745
:104AC0007BFE02B070BD00BFB40B0108080B0108EB
:104AD00008B500F0F7F80000002307B5421E009368
:104AE0000023042A19D8DFE802F003080C10140090
:104AF00001220C490C48FEF75FFE02220B490C48CC
:104B0000F9E703220B490C48F5E704220B490C484E
:104B1000F1E705220B490C48EDE702460B490C482A
:104B2000E9E700BF000A010825010280210A010807
:104B300026010280460A0108270102807B0A01083B
:104B400028010280B60A01082A010280F60A01083B
:104B5000000102800146014AFFF7A0BF3101018038
:104B6000014AFFF79BBF00BF32010180014AFFF7F6
:104B700095BF00BF37010180014AFFF78FBF00BF1B
:104B80003301018011F1110F02D0024AFFF786BFF5
:104B9000704700BF34010180014AFFF77FBF00BFAB
:104BA0003801018010B502F04FF8034B1B6813B1B8
:104BB000BDE81040184710BD3C530020024B1B6855
:104BC00003B11847704700BF3C530020024B987A4E
:104BD000003818BF01207047EC03002008B500F032
:104BE00065FC00220649FEF77FFFC31C04D98B2217
:104BF00004490548FEF74AFBBDE8084000F06ABCDE
:104C0000CD4B0008CC0B0108020C0108B0F57A7FEF
:104C100010B50C4604D0322219491A48FEF736FB6B
:104C2000FEF7C2F80028184A16DB00F16043F021B5
:104C300003F5614383F80013916800F1100341F814
:104C40002340BFF34F8F926852F823309C420AD022
:104C50003F220B490D48E1E700F00F03F021043B30
:104C600013441976E8E7002808DB0123420900F025
:104C70001F0003FA00F0064B43F82200002010BD8D
:104C8000CC0B01082F0C010800ED00E03C0C0108E2
:104C900000E100E008B5FEF7AFFEBDE80840FEF712
:104CA000B4B90000014B1868FEF7E6B9C8510020FE
:104CB000014B1868FEF7A0B9C851002008B5FEF7EF
:104CC00073F808BD024C08B523689847FCE700BF9D
:104CD000E80300201EF0040F0CBFEFF30880EFF391
:104CE0000980816911F8021C91BB01B590E80F1091
:104CF000E047BDE800508CE80300244B93E8060031
:104D0000914208BF704741B91EF0100F10D12049E1
:104D1000086820F0010008600AE02CE9F00F1EF09E
:104D2000100F08BF2CED108AC1F838C081F822E0BE
:104D30001A6092F82210906B61F0FF0E1EF0100FB7
:104D400008BFB0EC108AB0E8F00F80F30988704714
:104D5000104A13689942FAD801B552F821C00FC819
:104D6000E047BDE80050CCF80000704701B501F005
:104D7000E3FABDE80140EFF3098CBEE701B501F0AD
:104D8000A3FABDE80140EFF3098CB6E70004002068
:104D900034EF00E0280D0108014608B510B11320DA
:104DA00001F022FE002008BD08B5EFF305832BB902
:104DB000EFF3108313B9EFF3118333B16FF00500F4
:104DC00000F0CFF96FF0050008BDDFF808C000DF84
:104DD000FAE700BF994D0008EFF310832BB9EFF30A
:104DE0001180003818BF0120704701207047000073
:104DF00038B50546A0B1846802686CB114F00303AD
:104E000002D1C1680F2926D800246FF008010020C4
:104E1000FFF7ACFE204638BDC368002BF4D1154621
:104E2000104BD3F8900078B100F00FFC0446A0B10D
:104E30000123F322A3700023656022700A4AC4E9AB
:104E40000233084B5A66E5E701221021D3F88000AF
:104E500000F082FBEAE71546EBE76FF00401FFF78D
:104E600085FED7E7EC030020D54E0008930710B568
:104E700002F0010422D400F10C0384B153E8000FC6
:104E800000EA01028A4203D0BFF32F8F002005E021
:104E900020EA010243E8002404B1EFE710BD53E823
:104EA000000F084203D1BFF32F8F002005E020EA56
:104EB000010243E8002404B1F1E7EFE7C06801EA2A
:104EC00000031CB1994218BF0020E7E7002B08BF80
:104ED0000020E3E7F8B50546846804B9F8BD94F806
:104EE00023202846616AA768FFF7C0FF064638B14D
:104EF000204601F084FB00223146204601F026FCCA
:104F00003C46EAE7F8B50D4617461E46044620B172
:104F10000378F32B01D1002907DA20466FF0030153
:104F2000FFF724FE6FF00300F8BDFFF79FFF002896
:104F3000FAD186B13146432001F056FD40B1074B0E
:104F400020465E69314601F03FFB756286F82370AA
:104F50006FF00100E8E76FF00200E5E7EC030020E6
:104F600070B5054610B10378F32B07D028466FF0D3
:104F70000301FFF7FBFD6FF0030070BD836863B1B1
:104F8000284601F033FB00226FF0020101F0DEFB46
:104F9000A8680028F4D101F0ADFBAB78002613F02F
:104FA00001032E700FD0094B2946D3F8904024B14D
:104FB000204600F064FB3046DFE7D3F8800000F0C5
:104FC00000FB2046D9E71846D7E700BFEC030020D6
:104FD0002DE9F041064620B10378F32B01D10029D9
:104FE00009DA6FF003056FF003013046FFF7BEFDED
:104FF0002846BDE8F08100F10C0353E8002F42EA97
:10500000010543E8005000B1F7E7B4681CB9204639
:1050100001F070FBECE794F823203046616AD4F885
:105020000880FFF723FF074678B194F823309B07E9
:1050300056BF656A054620EA0505204601F0DFFAFD
:1050400000223946204601F081FB4446DEE700009D
:10505000024608B5EFF3058333B100206FF0050178
:10506000FFF784FD002008BDFFF7B6FE0028F4D14D
:105070001046DFF808C000DFF5E700BFF14D00087B
:10508000024638B5EFF305834BB192B96FF00304D4
:105090006FF003011046FFF769FD204638BDFFF7AA
:1050A0009BFE0028F1D11046DFF82CC000DF04463B
:1050B000F3E71378F32BE9D10029E7DB02F10C03C6
:1050C00053E8000F40EA010443E8004505B1F7E763
:1050D000104601F079F9E0E7D14F000838B50446F1
:1050E0001D46EFF3058343B18CB920466FF00301F1
:1050F000FFF73CFD6FF0030038BDFFF76DFE0028A1
:10510000F2D120462B46DFF824C000DFF4E72378F5
:10511000F32BEAD1002DE8D10029E6DB2046FFF78A
:10512000A5FE002808BF6FF00200E5E7054F000864
:10513000024608B5EFF305833BB110466FF0050159
:10514000FFF714FD6FF0050008BDFFF745FE0028CE
:10515000F3D11046DFF804C000DFF5E7614F000827
:1051600070477047EFF310832BB9EFF311800038CD
:1051700018BF01207047012070470000014BD8681C
:10518000704700BFEC03002070B5484C217A01291C
:1051900000F08A8031B14FF0FF30FFF7DBFC4FF0B9
:1051A000FF3070BD424D9C2204F1080009F026F941
:1051B000EB68E3652B8AD5E90B61A4F85430AB6842
:1051C0003046236400F0B0F908B1C4F88060D5E936
:1051D0000561304600F0A8F908B9D4F88060666728
:1051E000D5E90761304600F09FF908B9D4F880602E
:1051F000A667D5E90961304600F096F908B9D4F8F8
:105200008060E6676E6B3EB131683046D6E90223B6
:1052100000F0FAF9C4F88460AE6B3EB131683046F4
:10522000D6E9022300F0F0F9C4F88860EE6B3EB1D5
:1052300031683046D6E9022300F0E6F9C4F88C6004
:105240002E6C3EB131683046D6E9022300F0DCF91D
:10525000C4F890606E6C3EB131683046D6E90223E6
:1052600000F0D2F9C4F89460AE6C3EB131683046BB
:10527000D6E9022300F0C8F9C4F89860EE6C3EB19C
:1052800031683046D6E9022300F0BEF9C4F89C60CC
:105290002D6D3DB129682846D5E9022300F0B4F907
:1052A000C4F8A0500123237200207AE7EC03002009
:1052B000C00C010870B5264D2B7A012B07D06FF07A
:1052C00006004FF0FF34FFF745FC204670BD01F0AB
:1052D00083FC10B94FF0FF30F3E71E4AFF231E4E48
:1052E00082F8223092F82230D26863F0FF031B4923
:1052F000C2F302227068DB4314BFB3FA83F32023A6
:10530000C3F12003934298BF531CFE2202FA03F319
:10531000104ADBB2D377FFF779FC04460028D9D1D5
:10532000FFF7CCFC2861FFF7B5FC0D4801F05EF9F2
:1053300001F0D6F9336813F0010F4FF0020303D0E8
:1053400083F314882B72C0E7032282F31488F9E7F1
:10535000EC03002000ED00E0C00C01087D4D0008CA
:105360000804002010B5134C237A022B05D06FF0EF
:105370000700FFF7EFFB002010BDFFF793FC0123B0
:105380006372BFF34F8F0C4A5168C90003D54FF0C9
:1053900000615160A372E36A4BB1D869636C1BB1C1
:1053A0001B69984228BF184604232372E4E74FF094
:1053B000FF30F3E7EC03002000ED00E0F8B5214CEE
:1053C0000546237A042B3BD1E3680344E360E36A98
:1053D00053B106460127DA69B24225D8DF61B61A11
:1053E00001F030F9E36A13BB636C4BB10126186915
:1053F000A8421FD81E612D1A236D9847636CE3B92C
:1054000002230020237201F075F900236372BFF3B9
:105410004F8FA27A22B1A3724FF080520A4B5A608A
:10542000BDE8F840FFF736BC961BDE61DCE7002ED6
:10543000D1D1D9E7401B1861E2E7002DD7D1DFE7D2
:10544000F8BD00BFEC03002000ED00E07047000055
:1054500008B5FFF7FBFFEFF3058333B16FF00500ED
:10546000FFF778FB6FF0050008BDFFF77BFE002813
:10547000F4D1DFF808C000DFF6E700BF895100086B
:1054800008B5EFF3058333B16FF00500FFF762FB5A
:105490006FF0050008BDFFF765FE0028F4D1DFF8C6
:1054A00008C000DFF6E700BFB552000808B5EFF30B
:1054B00005832BB16FF00500FFF74CFB002008BD02
:1054C000FFF750FE0028F5D1DFF804C000DFF6E753
:1054D00065530008024608B5EFF305832BB16FF062
:1054E0000500BDE80840FFF735BBFFF73BFE00288D
:1054F000F5D11046DFF804C000DF08BDBD53000839
:1055000008B5EFF3058313B1054BD86808BDFFF765
:1055100029FE0028F8D1DFF80CC000DFF6E700BF55
:10552000EC0300207D51000810B598B140EA01035A
:1055300013F007030ED117290AD901600839102288
:105540000C18426084600B5081684A60C36001237C
:10555000184610BD0023FBE7F0B580B399B132F0D7
:1055600003032CD10F3100F1080521F007072B466A
:105570002D685C68E91A24F00304091B8F4204D9E2
:1055800029680029F3D10846F0BD46683A4304680B
:105590003E444660204450F8041C08388E4288BFC0
:1055A0004660586818B903F108015A60EBE720F02B
:1055B000030019181D504A6019600831E3E7002103
:1055C000E1E730B590B1D9B1A1F1080500F10804C7
:1055D0000022AC420BD151F8043C23F00304436891
:1055E0001B1B436042B941F8042C012030BD2368E5
:1055F00022463BB11C46ECE751F8083C1360F4E747
:105600000846F3E71846F1E730B5C0B189B1C2B139
:10561000CBB100240160C3604361C0E9014202FBD9
:1056200001F41D1905611846013904D1A21A9950D7
:105630000121084630BD851805602846F4E701467B
:10564000F7E71146F5E71946F3E7034610B5A8B1A9
:1056500000F1140252E8000F10B9BFF32F8F04E0DD
:10566000016842E8001404B1F4E738B1043353E8A8
:10567000002F511C43E8001404B1F8E710BD30B509
:10568000F0B1C3688B421BD803698B4218D900F173
:1056900014031A680A60BFF35F8F53E8002F0C6889
:1056A0009442F6D143E8001505B1F2E7043050E822
:1056B000003F5A1E40E8002101B1F8E7002030BD4C
:1056C0006FF00300FBE7EFF310832BB9EFF31180CA
:1056D000003818BF0120704701207047036B30B5B8
:1056E000E3B1CD780024DA78AA420FD31A46C1E993
:1056F00001248AB19160A4B16160283050E8003F74
:105700005A1C40E8002101B1F8E730BD5A681C4638
:10571000002AECD01346E6E7C162ECE7C1E90133A9
:10572000C1620163E9E7D1E9013223B19A608A6875
:105730001AB153607047C262F9E703637047F8B566
:10574000877804468FB3C5680027014605F10C062B
:105750002846FFF7E8FF27703046FFF790FFAB6859
:10576000002B48D03046FFF770FF0446002842D097
:10577000284600F03BFF06463A46394600F0E6FF71
:10578000304600F08FFF6A6A0646816804F10C001B
:1057900008F02EFDF923A7702370F368E37021460B
:1057A0002846BDE8F840FFF799BF8568AB68002B35
:1057B000F5D05B78832BF2D1284600F017FF064620
:1057C0003A46394600F0C2FF304600F06BFF06460D
:1057D0006A6A04F10C01806808F00AFDF3680BB1F5
:1057E000E2781A700023214605F10C002370BDE811
:1057F000F840FFF744BFF8BD2DE9F84F884607464B
:1058000000B131B96FF0030100200024FFF7C4F9A3
:1058100077E0CE1CB0FA80F126F003060C3604D0F7
:10582000B6FA86F30B441F2BECDD06FB07FAF2B148
:1058300094683CB1A30702D1D368332B05D86FF02D
:105840000801E1E7D368002BF9D1D2F80090D2E942
:1058500004533DB115F0030B01D19A4554D96FF0B3
:105860000901D1E7002BFAD11CB19B460CE091460F
:105870001546274BD3F8A000D8B1FFF7E6FE044643
:10588000A0B14FF0010B35BB214B00225146D86F20
:10589000FFF762FE0546C0B9BBF1000F06D01C4BF6
:1058A0002146D3F8A00058B1FFF7E9FE6FF00401DC
:1058B000AAE701223421D3F88000FFF74DFEDEE78E
:1058C000D3F88000FFF77DFEF0E74BF0020B524665
:1058D000002108F093FDFA233246394604F10C000A
:1058E0002370002384F802B0A360C4F80490C4E9D4
:1058F0000983C4E90B332B46FFF786FE044B054AA8
:105900001A672046BDE8F88F002CE4D1B1E700BF4C
:10591000EC0300203F5700082DE9F0410C461746E4
:105920009846054618B10378FA2B00D141B92846AC
:105930006FF00301FFF730F96FF00300BDE8F0816D
:105940008368C3B15B78832B15D100F04FFE064608
:105950000122002100F0FAFE304600F0A3FE0646C8
:105960006A6A2146806808F043FCF0680028E5D0A8
:1059700007700020E2E705F10C00FFF766FE06461F
:1059800070B121466A6A0C30002408F031FCF9231A
:10599000314628463370B470F770FFF79FFEE8E792
:1059A000B8F1000F10D04146932001F01DF840B12E
:1059B000074B2846596900F007FEEFF30983C3E956
:1059C00002476FF00100B9E76FF00200B6E700BFD1
:1059D000EC03002000F1280310B553E8002F12B9A2
:1059E000BFF32F8F04E0511E43E8001404B1F4E725
:1059F0000AB9002010BDC06A01230028F9D0821C1A
:105A0000D2E84F1FC2E8443F04B1F9E711F0FF0F9D
:105A1000F0D08068F1E700002DE9F0410F4615460F
:105A20009846044618B10378FA2B00D141B92046B4
:105A30006FF00301FFF7B0F86FF00300BDE8F081ED
:105A4000FFF7C8FF064600283AD001462046FFF778
:105A50006AFE626A06F10C01384608F0C9FB0DB116
:105A6000F3782B70002504F10C0731463846357069
:105A7000FFF705FEA3680BB90020DFE73846FFF704
:105A8000E4FD06460028F7D0204600F0AFFD0746AB
:105A90002946012200F05AFE384600F003FE626AF1
:105AA0000746816806F10C0008F0A2FBF923B570E7
:105AB000314633702046FB68F370FFF70FFEDBE7DB
:105AC000B8F1000F10D04146832000F08DFF40B1A7
:105AD000074B2046596900F077FDEFF30983C3E9CE
